{
  "contractName": "Wallet",
  "abi": [
    {
      "anonymous": false,
      "inputs": [
        {
          "indexed": true,
          "internalType": "address",
          "name": "previousOwner",
          "type": "address"
        },
        {
          "indexed": true,
          "internalType": "address",
          "name": "newOwner",
          "type": "address"
        }
      ],
      "name": "OwnershipTransferred",
      "type": "event"
    },
    {
      "inputs": [
        {
          "internalType": "address",
          "name": "",
          "type": "address"
        },
        {
          "internalType": "bytes32",
          "name": "",
          "type": "bytes32"
        }
      ],
      "name": "balances",
      "outputs": [
        {
          "internalType": "uint256",
          "name": "",
          "type": "uint256"
        }
      ],
      "stateMutability": "view",
      "type": "function",
      "constant": true
    },
    {
      "inputs": [],
      "name": "owner",
      "outputs": [
        {
          "internalType": "address",
          "name": "",
          "type": "address"
        }
      ],
      "stateMutability": "view",
      "type": "function",
      "constant": true
    },
    {
      "inputs": [],
      "name": "renounceOwnership",
      "outputs": [],
      "stateMutability": "nonpayable",
      "type": "function"
    },
    {
      "inputs": [
        {
          "internalType": "uint256",
          "name": "",
          "type": "uint256"
        }
      ],
      "name": "tokenList",
      "outputs": [
        {
          "internalType": "bytes32",
          "name": "",
          "type": "bytes32"
        }
      ],
      "stateMutability": "view",
      "type": "function",
      "constant": true
    },
    {
      "inputs": [
        {
          "internalType": "bytes32",
          "name": "",
          "type": "bytes32"
        }
      ],
      "name": "tokenMapping",
      "outputs": [
        {
          "internalType": "bytes32",
          "name": "ticker",
          "type": "bytes32"
        },
        {
          "internalType": "address",
          "name": "tokenAddress",
          "type": "address"
        }
      ],
      "stateMutability": "view",
      "type": "function",
      "constant": true
    },
    {
      "inputs": [
        {
          "internalType": "address",
          "name": "newOwner",
          "type": "address"
        }
      ],
      "name": "transferOwnership",
      "outputs": [],
      "stateMutability": "nonpayable",
      "type": "function"
    },
    {
      "inputs": [
        {
          "internalType": "bytes32",
          "name": "_ticker",
          "type": "bytes32"
        },
        {
          "internalType": "address",
          "name": "_tokenAddress",
          "type": "address"
        }
      ],
      "name": "addToken",
      "outputs": [],
      "stateMutability": "nonpayable",
      "type": "function"
    },
    {
      "inputs": [
        {
          "internalType": "uint256",
          "name": "_amount",
          "type": "uint256"
        },
        {
          "internalType": "bytes32",
          "name": "_ticker",
          "type": "bytes32"
        }
      ],
      "name": "deposit",
      "outputs": [],
      "stateMutability": "nonpayable",
      "type": "function"
    },
    {
      "inputs": [
        {
          "internalType": "uint256",
          "name": "_amount",
          "type": "uint256"
        },
        {
          "internalType": "bytes32",
          "name": "_ticker",
          "type": "bytes32"
        }
      ],
      "name": "withdraw",
      "outputs": [],
      "stateMutability": "nonpayable",
      "type": "function"
    }
  ],
  "bytecode": "0x608060405234801561001057600080fd5b5061002d61002261003260201b60201c565b61003a60201b60201c565b6100fe565b600033905090565b60008060009054906101000a900473ffffffffffffffffffffffffffffffffffffffff169050816000806101000a81548173ffffffffffffffffffffffffffffffffffffffff021916908373ffffffffffffffffffffffffffffffffffffffff1602179055508173ffffffffffffffffffffffffffffffffffffffff168173ffffffffffffffffffffffffffffffffffffffff167f8be0079c531659141344cd1fd0a4f28419497f9722a3daafe3b4186f6b6457e060405160405180910390a35050565b610feb8061010d6000396000f3fe608060405234801561001057600080fd5b50600436106100935760003560e01c80639776aacf116100665780639776aacf146101215780639ead72221461013d578063a8d2021a1461016d578063c9630cb014610189578063f2fde38b146101a557610093565b80631f14df6914610098578063667cb4ba146100c8578063715018a6146100f95780638da5cb5b14610103575b600080fd5b6100b260048036038101906100ad9190610aec565b6101c1565b6040516100bf9190610da5565b60405180910390f35b6100e260048036038101906100dd9190610b59565b6101e6565b6040516100f0929190610d3c565b60405180910390f35b61010161022a565b005b61010b6102b2565b6040516101189190610ca6565b60405180910390f35b61013b60048036038101906101369190610b86565b6102db565b005b61015760048036038101906101529190610bc6565b610416565b6040516101649190610d21565b60405180910390f35b61018760048036038101906101829190610bf3565b61043a565b005b6101a3600480360381019061019e9190610bf3565b610688565b005b6101bf60048036038101906101ba9190610abf565b61087b565b005b6001602052816000526040600020602052806000526040600020600091509150505481565b60036020528060005260406000206000915090508060000154908060010160009054906101000a900473ffffffffffffffffffffffffffffffffffffffff16905082565b610232610973565b73ffffffffffffffffffffffffffffffffffffffff166102506102b2565b73ffffffffffffffffffffffffffffffffffffffff16146102a6576040517f08c379a000000000000000000000000000000000000000000000000000000000815260040161029d90610d85565b60405180910390fd5b6102b0600061097b565b565b60008060009054906101000a900473ffffffffffffffffffffffffffffffffffffffff16905090565b6102e3610973565b73ffffffffffffffffffffffffffffffffffffffff166103016102b2565b73ffffffffffffffffffffffffffffffffffffffff1614610357576040517f08c379a000000000000000000000000000000000000000000000000000000000815260040161034e90610d85565b60405180910390fd5b60405180604001604052808381526020018273ffffffffffffffffffffffffffffffffffffffff16815250600360008481526020019081526020016000206000820151816000015560208201518160010160006101000a81548173ffffffffffffffffffffffffffffffffffffffff021916908373ffffffffffffffffffffffffffffffffffffffff16021790555090505060028290806001815401808255809150506001900390600052602060002001600090919091909150555050565b6002818154811061042657600080fd5b906000526020600020016000915090505481565b80600073ffffffffffffffffffffffffffffffffffffffff166003600083815260200190815260200160002060010160009054906101000a900473ffffffffffffffffffffffffffffffffffffffff1673ffffffffffffffffffffffffffffffffffffffff1614156104ab57600080fd5b82600160003373ffffffffffffffffffffffffffffffffffffffff1673ffffffffffffffffffffffffffffffffffffffff168152602001908152602001600020600084815260200190815260200160002054101561050857600080fd5b61056b83600160003373ffffffffffffffffffffffffffffffffffffffff1673ffffffffffffffffffffffffffffffffffffffff168152602001908152602001600020600085815260200190815260200160002054610a3f90919063ffffffff16565b600160003373ffffffffffffffffffffffffffffffffffffffff1673ffffffffffffffffffffffffffffffffffffffff1681526020019081526020016000206000848152602001908152602001600020819055506003600083815260200190815260200160002060010160009054906101000a900473ffffffffffffffffffffffffffffffffffffffff1673ffffffffffffffffffffffffffffffffffffffff1663a9059cbb33856040518363ffffffff1660e01b8152600401610630929190610cf8565b602060405180830381600087803b15801561064a57600080fd5b505af115801561065e573d6000803e3d6000fd5b505050506040513d601f19601f820116820180604052508101906106829190610b2c565b50505050565b80600073ffffffffffffffffffffffffffffffffffffffff166003600083815260200190815260200160002060010160009054906101000a900473ffffffffffffffffffffffffffffffffffffffff1673ffffffffffffffffffffffffffffffffffffffff1614156106f957600080fd5b61075c83600160003373ffffffffffffffffffffffffffffffffffffffff1673ffffffffffffffffffffffffffffffffffffffff168152602001908152602001600020600085815260200190815260200160002054610a5590919063ffffffff16565b600160003373ffffffffffffffffffffffffffffffffffffffff1673ffffffffffffffffffffffffffffffffffffffff1681526020019081526020016000206000848152602001908152602001600020819055506003600083815260200190815260200160002060010160009054906101000a900473ffffffffffffffffffffffffffffffffffffffff1673ffffffffffffffffffffffffffffffffffffffff166323b872dd3330866040518463ffffffff1660e01b815260040161082393929190610cc1565b602060405180830381600087803b15801561083d57600080fd5b505af1158015610851573d6000803e3d6000fd5b505050506040513d601f19601f820116820180604052508101906108759190610b2c565b50505050565b610883610973565b73ffffffffffffffffffffffffffffffffffffffff166108a16102b2565b73ffffffffffffffffffffffffffffffffffffffff16146108f7576040517f08c379a00000000000000000000000000000000000000000000000000000000081526004016108ee90610d85565b60405180910390fd5b600073ffffffffffffffffffffffffffffffffffffffff168173ffffffffffffffffffffffffffffffffffffffff161415610967576040517f08c379a000000000000000000000000000000000000000000000000000000000815260040161095e90610d65565b60405180910390fd5b6109708161097b565b50565b600033905090565b60008060009054906101000a900473ffffffffffffffffffffffffffffffffffffffff169050816000806101000a81548173ffffffffffffffffffffffffffffffffffffffff021916908373ffffffffffffffffffffffffffffffffffffffff1602179055508173ffffffffffffffffffffffffffffffffffffffff168173ffffffffffffffffffffffffffffffffffffffff167f8be0079c531659141344cd1fd0a4f28419497f9722a3daafe3b4186f6b6457e060405160405180910390a35050565b60008183610a4d9190610e27565b905092915050565b60008183610a639190610dd1565b905092915050565b600081359050610a7a81610f59565b92915050565b600081519050610a8f81610f70565b92915050565b600081359050610aa481610f87565b92915050565b600081359050610ab981610f9e565b92915050565b600060208284031215610ad557610ad4610edc565b5b6000610ae384828501610a6b565b91505092915050565b60008060408385031215610b0357610b02610edc565b5b6000610b1185828601610a6b565b9250506020610b2285828601610a95565b9150509250929050565b600060208284031215610b4257610b41610edc565b5b6000610b5084828501610a80565b91505092915050565b600060208284031215610b6f57610b6e610edc565b5b6000610b7d84828501610a95565b91505092915050565b60008060408385031215610b9d57610b9c610edc565b5b6000610bab85828601610a95565b9250506020610bbc85828601610a6b565b9150509250929050565b600060208284031215610bdc57610bdb610edc565b5b6000610bea84828501610aaa565b91505092915050565b60008060408385031215610c0a57610c09610edc565b5b6000610c1885828601610aaa565b9250506020610c2985828601610a95565b9150509250929050565b610c3c81610e5b565b82525050565b610c4b81610e79565b82525050565b6000610c5e602683610dc0565b9150610c6982610ee1565b604082019050919050565b6000610c81602083610dc0565b9150610c8c82610f30565b602082019050919050565b610ca081610ea3565b82525050565b6000602082019050610cbb6000830184610c33565b92915050565b6000606082019050610cd66000830186610c33565b610ce36020830185610c33565b610cf06040830184610c97565b949350505050565b6000604082019050610d0d6000830185610c33565b610d1a6020830184610c97565b9392505050565b6000602082019050610d366000830184610c42565b92915050565b6000604082019050610d516000830185610c42565b610d5e6020830184610c33565b9392505050565b60006020820190508181036000830152610d7e81610c51565b9050919050565b60006020820190508181036000830152610d9e81610c74565b9050919050565b6000602082019050610dba6000830184610c97565b92915050565b600082825260208201905092915050565b6000610ddc82610ea3565b9150610de783610ea3565b9250827fffffffffffffffffffffffffffffffffffffffffffffffffffffffffffffffff03821115610e1c57610e1b610ead565b5b828201905092915050565b6000610e3282610ea3565b9150610e3d83610ea3565b925082821015610e5057610e4f610ead565b5b828203905092915050565b6000610e6682610e83565b9050919050565b60008115159050919050565b6000819050919050565b600073ffffffffffffffffffffffffffffffffffffffff82169050919050565b6000819050919050565b7f4e487b7100000000000000000000000000000000000000000000000000000000600052601160045260246000fd5b600080fd5b7f4f776e61626c653a206e6577206f776e657220697320746865207a65726f206160008201527f6464726573730000000000000000000000000000000000000000000000000000602082015250565b7f4f776e61626c653a2063616c6c6572206973206e6f7420746865206f776e6572600082015250565b610f6281610e5b565b8114610f6d57600080fd5b50565b610f7981610e6d565b8114610f8457600080fd5b50565b610f9081610e79565b8114610f9b57600080fd5b50565b610fa781610ea3565b8114610fb257600080fd5b5056fea2646970667358221220e7a8e7b607b0b65ac56be54a3cc689bb0bd48ee2494d7a142b7db0035b7efdb564736f6c63430008070033",
  "immutableReferences": {},
  "source": "import \"../node_modules/@openzeppelin/contracts/token/ERC20/IERC20.sol\";\nimport \"../node_modules/@openzeppelin/contracts/utils/math/SafeMath.sol\";\nimport \"../node_modules/@openzeppelin/contracts/access/Ownable.sol\";\n\n\n// SPDX-License-Identifier: MIT\npragma solidity ^0.8.0;\n\ncontract Wallet is Ownable {\n\nusing SafeMath for uint256;\n    \n    mapping(address => mapping(bytes32 => uint256)) public balances;\n\n    struct Token{\n        bytes32 ticker;\n        address tokenAddress;\n    }\n\n    bytes32[] public tokenList;\n    mapping(bytes32 => Token) public tokenMapping;\n\n    function addToken(bytes32 _ticker, address _tokenAddress) external onlyOwner {\n        tokenMapping[_ticker] = Token(_ticker, _tokenAddress);\n        tokenList.push(_ticker);\n    }\n\n    function deposit(uint _amount, bytes32 _ticker) external tokenExists(_ticker) {\n        balances[msg.sender][_ticker] = balances[msg.sender][_ticker].add(_amount);\n        IERC20(tokenMapping[_ticker].tokenAddress).transferFrom(msg.sender, address(this), _amount);\n        }\n\n    function withdraw(uint _amount, bytes32 _ticker) external tokenExists(_ticker) {\n        require(balances[msg.sender][_ticker] >= _amount);\n        balances[msg.sender][_ticker] = balances[msg.sender][_ticker].sub(_amount);\n        IERC20(tokenMapping[_ticker].tokenAddress).transfer(msg.sender, _amount);\n    }\n\n    modifier tokenExists(bytes32 _ticker) {\n        require(tokenMapping[_ticker].tokenAddress != address(0));\n        _;\n    }\n}",
  "sourcePath": "/Users/danieljoseph/Desktop/solidity/dex/contracts/wallet.sol",
  "compiler": {
    "name": "solc",
    "version": "0.8.7+commit.e28d00a7.Emscripten.clang"
  },
  "schemaVersion": "3.4.3",
  "updatedAt": "2021-09-11T12:05:30.140Z",
  "networkType": "ethereum",
  "devdoc": {
    "kind": "dev",
    "methods": {
      "owner()": {
        "details": "Returns the address of the current owner."
      },
      "renounceOwnership()": {
        "details": "Leaves the contract without owner. It will not be possible to call `onlyOwner` functions anymore. Can only be called by the current owner. NOTE: Renouncing ownership will leave the contract without an owner, thereby removing any functionality that is only available to the owner."
      },
      "transferOwnership(address)": {
        "details": "Transfers ownership of the contract to a new account (`newOwner`). Can only be called by the current owner."
      }
    },
    "version": 1
  },
  "userdoc": {
    "kind": "user",
    "methods": {},
    "version": 1
  }
}